:040B140002250000B6
:100A6A00120ADD0526E526700205257FE87E0312B7
:100A7A000AC8750C03AB26AA257D027F01120A2338
:020A8A0080E109
:060AF100C2A58F80D2A710
:080AF7007F027EEFDEFEDFFC52
:010AFF0022D4
:0A0B0000C2A6120AF1C2A7020AF70A
:100A8C00CFCDCFCECCCE12083F7C007D0A12083FD2
:040A9C00ED2430FF16
:0A0AA000D2A6120AF1C2A7020AF75B
:100AAA00AE07EEFB7A0064017004ED148009EB6472
:0E0ABA00024A7009ED243F4480FF120B002217
:100ADD007F38120B007F0C120B007F06120B007F6C
:040AED0001020B00F7
:0A0B0A00AC03120AAAAF04020AA00D
:060A47008B228A238924A2
:100A4D00120AAAE4FDAB22AA23A9248D8275830084
:0C0A5D00120800FF6006120AA00D80E9DC
:010A6900226A
:0A09F200EF24FFFDEE34FFFC7F0A46
:0809FC008E0D8F0E8C0F8D1083
:100A04007F017E00E4FBEBC39510E50F6480F8746E
:0E0A14008098500AAC0DAD0E12082D0B80E834
:010A220022B1
:040A23008A0A8B0BA5
:100A2700120AAAAA0CEAFF7E00D39400748094806D
:0F0A3700400D1209F2AC0AAD0B120A8C1A80E6C0
:010A4600228D
:04096B008B828A836E
:10096F00120AAAC3E58364809480400D7F2B120A7C
:10097F00A085831685821780107F2D120AA0C3E4ED
:10098F009582F517E49583F516AA15EAFF7E00D335
:10099F00940074809480400D1209F2AC16AD1712BA
:0509AF000A8C1A80E62D
:0109B4002220
:040920008A1A8B1B89
:10092400120AAAAA1CEAD39400748094804037EA7D
:1009340024FFFDE434FFFC7F107E001209FCAC1A96
:10094400AD1BCFCDCFCECCCE12083FEF540FFEC39C
:10095400940A74809480EE5004243080022437FF7B
:06096400120AA01A80BF78
:01096A00226A
:0409B5008A1F8B20EA
:1009B900120AAAAA21EAFF7E00D3940074809480C7
:1009C9004026EF24FFFDEE34FFFC7F021209FCAC48
:1009D9001FAD20CFCDCFCECCCE12083FEF5401248E
:0809E90030FF120AA01A80CDB4
:0109F10022E3
:100AC800EF1FAC0670011E4C600A7D027CEFDCFE55
:040AD800DDFC80ECD5
:010ADC0022F7
:030000000208945F
:0C089400787FE4F6D8FD7581260208DBB1
:10080000BB010CE58229F582E5833AF583E02250AD
:1008100006E92582F8E622BBFE06E92582F8E222F7
:0D082000E58229F582E5833AF583E4932211
:10082D00EF8DF0A4A8F0CF8CF0A428CE8DF0A42EDF
:02083D00FE2299
:10083F00BC000BBE0029EF8DF084FFADF022E4CC9D
:10084F00F875F008EF2FFFEE33FEEC33FCEE9DEC66
:10085F00984005FCEE9DFE0FD5F0E9E4CEFD22EDAC
:10086F00F8F5F0EE8420D21CFEADF075F008EF2FF6
:10087F00FFED33FD4007985006D5F0F222C398FDE7
:05088F000FD5F0EA2284
:1008A000020A6AE493A3F8E493A34003F68001F2FA
:1008B00008DFF48029E493A3F85407240CC8C33359
:1008C000C4540F4420C8834004F456800146F6DF28
:1008D000E4800B0102040810204080900B14E47E99
:1008E000019360BCA3FF543F30E509541FFEE4931D
:1008F000A360010ECF54C025E060A840B8E493A3E4
:10090000FAE493A3F8E493A3C8C582C8CAC583CA0E
:10091000F0A3C8C582C8CAC583CADFE9DEE780BEC6
:010B180000DC
:00000001FF
