:0A0C0F0050617373776F72643A004E
:100B2000120BE07BFF7A0C790F7D017F01120B6CB9
:100B30001208008F22E52260F7FB7A00750C027D17
:080B4000017F02120B4880E85E
:100BCB00EF1FAC0670011E4C600A7D027CEFDCFE51
:040BDB00DDFC80ECD1
:010BDF0022F3
:060BF400C2A58F80D2A70C
:080BFA007F027EEFDEFEDFFC4E
:010C020022CF
:0A0C1900C2A6120BF4C2A7020BFAE8
:100B8F00CFCDCFCECCCE1209C87C007D0A1209C8BA
:040B9F00ED2430FF12
:0A0BA300D2A6120BF4C2A7020BFA4F
:100BAD00AE07EEFB7A0064017004ED148009EB646E
:0E0BBD00024A7009ED243F4480FF120C1922F9
:100BE0007F38120C197F0C120C197F06120C197F1A
:040BF00001020C19D9
:0A0C2300AC03120BADAF04020BA3EB
:060B6C008B088A09890ACA
:100B7200120BADE4FDAB08AA09A90A8D82758300A8
:0C0B8200120989FF6006120BA30D80E928
:010B8E002244
:0A0AEF00EF24FFFDEE34FFFC7F0A48
:080AF9008E0D8F0E8C0F8D1085
:100B01007F017E00E4FBEBC39510E50F6480F87470
:0E0B11008098500AAC0DAD0E1209B60B80E8AC
:010B1F0022B3
:040B48008A0A8B0B7F
:100B4C00120BADAA0CEAFF7E00D394007480948043
:0F0B5C00400D120AEFAC0AAD0B120B8F1A80E698
:010B6B002267
:040A68008B828A8370
:100A6C00120BADC3E58364809480400D7F2B120B79
:100A7C00A385831685821780107F2D120BA3C3E4E8
:100A8C009582F517E49583F516AA15EAFF7E00D337
:100A9C00940074809480400D120AEFAC16AD1712BE
:050AAC000B8F1A80E62B
:010AB1002222
:040A1D008A1A8B1B8B
:100A2100120BADAA1CEAD39400748094804037EA7B
:100A310024FFFDE434FFFC7F107E00120AF9AC1A9A
:100A4100AD1BCFCDCFCECCCE1209C8EF540FFEC314
:100A5100940A74809480EE5004243080022437FF7D
:060A6100120BA31A80BF76
:010A6700226C
:040AB2008A1F8B20EC
:100AB600120BADAA21EAFF7E00D3940074809480C5
:100AC6004026EF24FFFDEE34FFFC7F02120AF9AC4C
:100AD6001FAD20CFCDCFCECCCE1209C8EF54012406
:080AE60030FF120BA31A80CDB2
:010AEE0022E5
:10080000E4F5087590FFC2932097137F14FE120B36
:10081000CB3097FD7F147E00120BCB75080120961C
:10082000147F147E00120BCB3096FD7F147E0012D5
:100830000BCB7508052095147F147E00120BCB306E
:1008400095FD7F147E00120BCB7508092094147F50
:10085000147E00120BCB3094FD7F147E00120BCB64
:1008600075080D7590FFC2922097147F147E0012B8
:100870000BCB3097FD7F147E00120BCB7508022046
:1008800096147F147E00120BCB3096FD7F147E00F1
:10089000120BCB7508062095147F147E00120BCB2B
:1008A0003095FD7F147E00120BCB75080A2094143E
:1008B0007F147E00120BCB3094FD7F147E00120B50
:1008C000CB75080E7590FFC2912097147F147E009F
:1008D000120BCB3097FD7F147E00120BCB750803F3
:1008E0002096147F147E00120BCB3096FD7F147E71
:1008F00000120BCB7508072095147F147E00120B95
:10090000CB3095FD7F147E00120BCB75080B209425
:10091000147F147E00120BCB3094FD7F147E0012E6
:100920000BCB75080F7590FFC2902097147F147E33
:1009300000120BCB3097FD7F147E00120BCB750895
:10094000042096147F147E00120BCB3096FD7F148A
:100950007E00120BCB7508082095147F147E0012C0
:100960000BCB3095FD7F147E00120BCB75080C204D
:1009700094147F147E00120BCB3094FD7F147E0004
:08098000120BCB750810AF0843
:01098800224C
:03000000020C03EC
:0C0C0300787FE4F6D8FD758122020B20FA
:10098900BB010CE58229F582E5833AF583E0225023
:1009990006E92582F8E622BBFE06E92582F8E2226D
:0D09A900E58229F582E5833AF583E4932287
:1009B600EF8DF0A4A8F0CF8CF0A428CE8DF0A42E55
:0209C600FE220F
:1009C800BC000BBE0029EF8DF084FFADF022E4CC13
:1009D800F875F008EF2FFFEE33FEEC33FCEE9DECDC
:1009E800984005FCEE9DFE0FD5F0E9E4CEFD22ED22
:1009F800F8F5F0EE8420D21CFEADF075F008EF2F6C
:100A0800FFED33FD4007985006D5F0F222C398FD5C
:050A18000FD5F0EA22F9
:00000001FF
