:100C8D0050617373776F72643A004F4B0045525247
:010C9D000056
:10098900120C797BFF7A0C798D7D017F01120C05A0
:100999001208008F1CE51C60F7D3940A74809480B8
:1009A9005041C3E5199404E51894005028AE1AAFD4
:1009B9001B7C007D0A120A778E1A8F1BE51C75F0C5
:1009C9000A84E5F0251BF51BE4351AF51A0519E526
:1009D9001970020518750C04AB1BAA1A7D017F0258
:1009E900120BE1E51C640B7036E51BB4290DE51A01
:1009F900B409087BFF7A0C799780067BFF7A0C791A
:100A09009A7D0E7F01120C05E4F51AF51BF518F510
:100A190019750C04AB1BAA1A7D017F02120BE1E5C3
:100A29001C640C6003020999F51AF51BF518F519F0
:100A3900750C04AB1BAA1A7D017F02120BE1020996
:010A49009913
:100C6400EF1FAC0670011E4C600A7D027CEFDCFEB7
:040C7400DDFC80EC37
:010C78002259
:060C9E00C2A58F80D2A761
:080CA4007F027EEFDEFEDFFCA3
:010CAC002225
:0A0CB900C2A6120C9EC2A7020CA4F2
:100C2800CFCDCFCECCCE120A897C007D0A120A899C
:040C3800ED2430FF78
:0A0C3C00D2A6120C9EC2A7020CA45F
:100C4600AE07EEFB7A0064017004ED148009EB64D4
:0E0C5600024A7009ED243F4480FF120CB922BF
:100C79007F38120CB97F0C120CB97F06120CB97FA0
:040C890001020CB99F
:0A0CC300AC03120C46AF04020C3C17
:060C05008B088A09890A30
:100C0B00120C46E4FDAB08AA09A90A8D8275830074
:0C0C1B00120A4AFF6006120C3C0D80E932
:010C270022AA
:0A0BB000EF24FFFDEE34FFFC7F0A86
:080BBA008E0D8F0E8C0F8D10C3
:100BC2007F017E00E4FBEBC39510E50F6480F874AF
:0E0BD2008098500AAC0DAD0E120A770B80E829
:010BE00022F2
:040BE1008A0A8B0BE6
:100BE500120C46AA0CEAFF7E00D394007480948010
:0F0BF500400D120BB0AC0AAD0B120C281A80E6A3
:010C040022CD
:040B29008B828A83AE
:100B2D00120C46C3E58364809480400D7F2B120C1C
:100B3D003C85831685821780107F2D120C3CC3E4F3
:100B4D009582F517E49583F516AA15EAFF7E00D375
:100B5D00940074809480400D120BB0AC16AD17123A
:050B6D000C281A80E6CF
:010B72002260
:040ADE008A1F8B20C0
:100AE200120C46AA21EAD39400748094804037EA1B
:100AF20024FFFDE434FFFC7F107E00120BBAAC1F12
:100B0200AD20CFCDCFCECCCE120A89EF540FFEC38B
:100B1200940A74809480EE5004243080022437FFBB
:060B2200120C3C1A80BF1A
:010B280022AA
:040B73008A248B2520
:100B7700120C46AA26EAFF7E00D394007480948064
:100B87004026EF24FFFDEE34FFFC7F02120BBAACC8
:100B970024AD25CFCDCFCECCCE120A89EF54012478
:080BA70030FF120C3C1A80CD56
:010BAF002223
:10080000E4F5087590FFC2932097137F14FE120C35
:10081000643097FD7F147E00120C647508012096E9
:10082000147F147E00120C643096FD7F147E00123B
:100830000C647508052095147F147E00120C64303A
:1008400095FD7F147E00120C647508092094147FB6
:10085000147E00120C643094FD7F147E00120C6430
:1008600075080D7590FFC2922097147F147E0012B8
:100870000C643097FD7F147E00120C647508022012
:1008800096147F147E00120C643096FD7F147E0057
:10089000120C647508062095147F147E00120C64F7
:1008A0003095FD7F147E00120C6475080A209414A4
:1008B0007F147E00120C643094FD7F147E00120CB5
:1008C0006475080E7590FFC2912097147F147E0006
:1008D000120C643097FD7F147E00120C64750803BF
:1008E0002096147F147E00120C643096FD7F147ED7
:1008F00000120C647508072095147F147E00120CFA
:10090000643095FD7F147E00120C6475080B2094F2
:10091000147F147E00120C643094FD7F147E00124C
:100920000C6475080F7590FFC2902097147F147E99
:1009300000120C643097FD7F147E00120C64750861
:10094000042096147F147E00120C643096FD7F14F0
:100950007E00120C647508082095147F147E001226
:100960000C643095FD7F147E00120C6475080C2019
:1009700094147F147E00120C643094FD7F147E006A
:08098000120C64750810AF08A9
:01098800224C
:03000000020CAD42
:0C0CAD00787FE4F6D8FD758126020989E5
:100A4A00BB010CE58229F582E5833AF583E0225061
:100A5A0006E92582F8E622BBFE06E92582F8E222AB
:0D0A6A00E58229F582E5833AF583E49322C5
:100A7700EF8DF0A4A8F0CF8CF0A428CE8DF0A42E93
:020A8700FE224D
:100A8900BC000BBE0029EF8DF084FFADF022E4CC51
:100A9900F875F008EF2FFFEE33FEEC33FCEE9DEC1A
:100AA900984005FCEE9DFE0FD5F0E9E4CEFD22ED60
:100AB900F8F5F0EE8420D21CFEADF075F008EF2FAA
:100AC900FFED33FD4007985006D5F0F222C398FD9B
:050AD9000FD5F0EA2238
:00000001FF
